{
  "_format": "hh-sol-artifact-1",
  "contractName": "Voting",
  "sourceName": "contracts/Voting.sol",
  "abi": [
    {
      "inputs": [
        {
          "internalType": "string[]",
          "name": "_candidateNames",
          "type": "string[]"
        },
        {
          "internalType": "uint256",
          "name": "_durationInMinutes",
          "type": "uint256"
        }
      ],
      "stateMutability": "nonpayable",
      "type": "constructor"
    },
    {
      "anonymous": false,
      "inputs": [
        {
          "indexed": false,
          "internalType": "uint256",
          "name": "candidateIndex",
          "type": "uint256"
        },
        {
          "indexed": false,
          "internalType": "string",
          "name": "name",
          "type": "string"
        },
        {
          "indexed": true,
          "internalType": "address",
          "name": "addedBy",
          "type": "address"
        }
      ],
      "name": "CandidateAdded",
      "type": "event"
    },
    {
      "anonymous": false,
      "inputs": [
        {
          "indexed": true,
          "internalType": "address",
          "name": "voter",
          "type": "address"
        },
        {
          "indexed": false,
          "internalType": "uint256",
          "name": "candidateIndex",
          "type": "uint256"
        },
        {
          "indexed": false,
          "internalType": "uint256",
          "name": "newVoteCount",
          "type": "uint256"
        }
      ],
      "name": "Voted",
      "type": "event"
    },
    {
      "inputs": [
        {
          "internalType": "string",
          "name": "_name",
          "type": "string"
        }
      ],
      "name": "addCandidate",
      "outputs": [],
      "stateMutability": "nonpayable",
      "type": "function"
    },
    {
      "inputs": [
        {
          "internalType": "uint256",
          "name": "",
          "type": "uint256"
        }
      ],
      "name": "candidates",
      "outputs": [
        {
          "internalType": "string",
          "name": "name",
          "type": "string"
        },
        {
          "internalType": "uint256",
          "name": "voteCount",
          "type": "uint256"
        }
      ],
      "stateMutability": "view",
      "type": "function"
    },
    {
      "inputs": [],
      "name": "getAllVotesOfCandiates",
      "outputs": [
        {
          "components": [
            {
              "internalType": "string",
              "name": "name",
              "type": "string"
            },
            {
              "internalType": "uint256",
              "name": "voteCount",
              "type": "uint256"
            }
          ],
          "internalType": "struct Voting.Candidate[]",
          "name": "",
          "type": "tuple[]"
        }
      ],
      "stateMutability": "view",
      "type": "function"
    },
    {
      "inputs": [
        {
          "internalType": "uint256",
          "name": "_candidateIndex",
          "type": "uint256"
        }
      ],
      "name": "getCandidate",
      "outputs": [
        {
          "internalType": "string",
          "name": "",
          "type": "string"
        },
        {
          "internalType": "uint256",
          "name": "",
          "type": "uint256"
        }
      ],
      "stateMutability": "view",
      "type": "function"
    },
    {
      "inputs": [],
      "name": "getRemainingTime",
      "outputs": [
        {
          "internalType": "uint256",
          "name": "",
          "type": "uint256"
        }
      ],
      "stateMutability": "view",
      "type": "function"
    },
    {
      "inputs": [],
      "name": "getVotingStatus",
      "outputs": [
        {
          "internalType": "bool",
          "name": "",
          "type": "bool"
        }
      ],
      "stateMutability": "view",
      "type": "function"
    },
    {
      "inputs": [],
      "name": "owner",
      "outputs": [
        {
          "internalType": "address",
          "name": "",
          "type": "address"
        }
      ],
      "stateMutability": "view",
      "type": "function"
    },
    {
      "inputs": [
        {
          "internalType": "uint256",
          "name": "_candidateIndex",
          "type": "uint256"
        }
      ],
      "name": "vote",
      "outputs": [],
      "stateMutability": "nonpayable",
      "type": "function"
    },
    {
      "inputs": [
        {
          "internalType": "address",
          "name": "",
          "type": "address"
        }
      ],
      "name": "voters",
      "outputs": [
        {
          "internalType": "bool",
          "name": "",
          "type": "bool"
        }
      ],
      "stateMutability": "view",
      "type": "function"
    },
    {
      "inputs": [],
      "name": "votingEnd",
      "outputs": [
        {
          "internalType": "uint256",
          "name": "",
          "type": "uint256"
        }
      ],
      "stateMutability": "view",
      "type": "function"
    },
    {
      "inputs": [],
      "name": "votingStart",
      "outputs": [
        {
          "internalType": "uint256",
          "name": "",
          "type": "uint256"
        }
      ],
      "stateMutability": "view",
      "type": "function"
    }
  ],
  "bytecode": "0x60806040523480156200001157600080fd5b5060405162000ffb38038062000ffb833981016040819052620000349162000248565b60008251116200008a5760405162461bcd60e51b815260206004820181905260248201527f4d75737420696e636c75646520696e697469616c2063616e646964617465732e604482015260640160405180910390fd5b60005b82518110156200011d5760006040518060400160405280858481518110620000b957620000b96200039b565b6020908102919091018101518252600091810182905283546001810185559382529081902082518051939460020290910192620000fa928492019062000159565b5060208201518160010155505080806200011490620003c7565b9150506200008d565b50600180546001600160a01b031916331790554260035562000141603c82620003e5565b6200014d904262000407565b600455506200045f9050565b828054620001679062000422565b90600052602060002090601f0160209004810192826200018b5760008555620001d6565b82601f10620001a657805160ff1916838001178555620001d6565b82800160010185558215620001d6579182015b82811115620001d6578251825591602001919060010190620001b9565b50620001e4929150620001e8565b5090565b5b80821115620001e45760008155600101620001e9565b634e487b7160e01b600052604160045260246000fd5b604051601f8201601f191681016001600160401b0381118282101715620002405762000240620001ff565b604052919050565b60008060408084860312156200025d57600080fd5b83516001600160401b03808211156200027557600080fd5b8186019150601f87818401126200028b57600080fd5b8251602083821115620002a257620002a2620001ff565b8160051b620002b382820162000215565b928352858101820192828101908c851115620002ce57600080fd5b83880192505b848310156200038657825187811115620002ee5760008081fd5b8801603f81018e13620003015760008081fd5b8481015188811115620003185762000318620001ff565b6200032b818901601f1916870162000215565b8181528f8c838501011115620003415760008081fd5b60005b8281101562000361578381018d0151828201890152870162000344565b82811115620003735760008884840101525b50845250509183019190830190620002d4565b9a90920151999b999a50505050505050505050565b634e487b7160e01b600052603260045260246000fd5b634e487b7160e01b600052601160045260246000fd5b6000600019821415620003de57620003de620003b1565b5060010190565b6000816000190483118215151615620004025762000402620003b1565b500290565b600082198211156200041d576200041d620003b1565b500190565b600181811c908216806200043757607f821691505b602082108114156200045957634e487b7160e01b600052602260045260246000fd5b50919050565b610b8c806200046f6000396000f3fe608060405234801561001057600080fd5b50600436106100a95760003560e01c80634d6bda5f116100715780634d6bda5f14610126578063581c281c1461013b57806385a38635146101515780638da5cb5b1461015a578063a3ec138d14610185578063efb98bcf146101a857600080fd5b80630121b93f146100ae578063101158af146100c35780633477ee2e146100df57806335b8e82014610100578063462e91ec14610113575b600080fd5b6100c16100bc3660046108a7565b6101b0565b005b6100cc60035481565b6040519081526020015b60405180910390f35b6100f26100ed3660046108a7565b610367565b6040516100d692919061090d565b6100f261010e3660046108a7565b610423565b6100c1610121366004610945565b610537565b61012e6106ef565b6040516100d691906109f6565b60045442105b60405190151581526020016100d6565b6100cc60045481565b60015461016d906001600160a01b031681565b6040516001600160a01b0390911681526020016100d6565b610141610193366004610a6c565b60026020526000908152604090205460ff1681565b6100cc6107ea565b60045442106102015760405162461bcd60e51b81526020600482015260186024820152772b37ba34b733903832b934b7b2103430b99032b73232b21760411b60448201526064015b60405180910390fd5b3360009081526002602052604090205460ff16156102615760405162461bcd60e51b815260206004820152601760248201527f596f75206861766520616c726561647920766f7465642e00000000000000000060448201526064016101f8565b60005481106102ad5760405162461bcd60e51b815260206004820152601860248201527724b73b30b634b21031b0b73234b230ba329034b73232bc1760411b60448201526064016101f8565b600081815481106102c0576102c0610a9c565b6000918252602082206001600290920201018054916102de83610ac8565b9091555050336000818152600260205260408120805460ff1916600117905580547fea66f58e474bc09f580000e81f31b334d171db387d0c6098ba47bd897741679b9184918290811061033357610333610a9c565b90600052602060002090600202016001015460405161035c929190918252602082015260400190565b60405180910390a250565b6000818154811061037757600080fd5b906000526020600020906002020160009150905080600001805461039a90610ae3565b80601f01602080910402602001604051908101604052809291908181526020018280546103c690610ae3565b80156104135780601f106103e857610100808354040283529160200191610413565b820191906000526020600020905b8154815290600101906020018083116103f657829003601f168201915b5050505050908060010154905082565b600080546060919083106104745760405162461bcd60e51b815260206004820152601860248201527724b73b30b634b21031b0b73234b230ba329034b73232bc1760411b60448201526064016101f8565b600080848154811061048857610488610a9c565b906000526020600020906002020190508060000181600101548180546104ad90610ae3565b80601f01602080910402602001604051908101604052809291908181526020018280546104d990610ae3565b80156105265780601f106104fb57610100808354040283529160200191610526565b820191906000526020600020905b81548152906001019060200180831161050957829003601f168201915b505050505091509250925050915091565b6001546001600160a01b031633146105a95760405162461bcd60e51b815260206004820152602f60248201527f4f6e6c792074686520636f6e7472616374206f776e65722063616e2063616c6c60448201526e103a3434b990333ab731ba34b7b71760891b60648201526084016101f8565b60045442106105f55760405162461bcd60e51b81526020600482015260186024820152772b37ba34b733903832b934b7b2103430b99032b73232b21760411b60448201526064016101f8565b60008151116106465760405162461bcd60e51b815260206004820152601f60248201527f43616e646964617465206e616d652063616e6e6f7420626520656d7074792e0060448201526064016101f8565b604080518082019091528181526000602080830182905281546001810183559180528251805160029093027f290decd9548b62a8d60345a988386fc84ba6bc95484008f6362f93160ef3e56301926106a1928492019061080e565b506020919091015160019182015560005433917ff119bb07245e20116d1c56128be14390dbc24c94fc13ee0a9bc023da18bab01d916106e09190610b1e565b8360405161035c929190610b35565b60606000805480602002602001604051908101604052809291908181526020016000905b828210156107e1578382906000526020600020906002020160405180604001604052908160008201805461074690610ae3565b80601f016020809104026020016040519081016040528092919081815260200182805461077290610ae3565b80156107bf5780601f10610794576101008083540402835291602001916107bf565b820191906000526020600020905b8154815290600101906020018083116107a257829003601f168201915b5050505050815260200160018201548152505081526020019060010190610713565b50505050905090565b600060045442106107fb5750600090565b426004546108099190610b1e565b905090565b82805461081a90610ae3565b90600052602060002090601f01602090048101928261083c5760008555610882565b82601f1061085557805160ff1916838001178555610882565b82800160010185558215610882579182015b82811115610882578251825591602001919060010190610867565b5061088e929150610892565b5090565b5b8082111561088e5760008155600101610893565b6000602082840312156108b957600080fd5b5035919050565b6000815180845260005b818110156108e6576020818501810151868301820152016108ca565b818111156108f8576000602083870101525b50601f01601f19169290920160200192915050565b60408152600061092060408301856108c0565b90508260208301529392505050565b634e487b7160e01b600052604160045260246000fd5b60006020828403121561095757600080fd5b813567ffffffffffffffff8082111561096f57600080fd5b818401915084601f83011261098357600080fd5b8135818111156109955761099561092f565b604051601f8201601f19908116603f011681019083821181831017156109bd576109bd61092f565b816040528281528760208487010111156109d657600080fd5b826020860160208301376000928101602001929092525095945050505050565b60006020808301818452808551808352604092508286019150828160051b87010184880160005b83811015610a5e57888303603f1901855281518051878552610a41888601826108c0565b918901519489019490945294870194925090860190600101610a1d565b509098975050505050505050565b600060208284031215610a7e57600080fd5b81356001600160a01b0381168114610a9557600080fd5b9392505050565b634e487b7160e01b600052603260045260246000fd5b634e487b7160e01b600052601160045260246000fd5b6000600019821415610adc57610adc610ab2565b5060010190565b600181811c90821680610af757607f821691505b60208210811415610b1857634e487b7160e01b600052602260045260246000fd5b50919050565b600082821015610b3057610b30610ab2565b500390565b828152604060208201526000610b4e60408301846108c0565b94935050505056fea2646970667358221220fcf5472e8cb0e8eaad8a3abf1f0ca29178422cdc951c3bf0881e7115f86aea9a64736f6c634300080b0033",
  "linkReferences": {},
  "deployedLinkReferences": {}
}